{
  "_format": "hh3-artifact-1",
  "contractName": "Treasury",
  "sourceName": "contracts/Treasury.sol",
  "abi": [
    {
      "inputs": [
        {
          "internalType": "address",
          "name": "initialOwner",
          "type": "address"
        }
      ],
      "stateMutability": "nonpayable",
      "type": "constructor"
    },
    {
      "inputs": [
        {
          "internalType": "address",
          "name": "owner",
          "type": "address"
        }
      ],
      "name": "OwnableInvalidOwner",
      "type": "error"
    },
    {
      "inputs": [
        {
          "internalType": "address",
          "name": "account",
          "type": "address"
        }
      ],
      "name": "OwnableUnauthorizedAccount",
      "type": "error"
    },
    {
      "anonymous": false,
      "inputs": [
        {
          "indexed": true,
          "internalType": "address",
          "name": "to",
          "type": "address"
        },
        {
          "indexed": false,
          "internalType": "uint256",
          "name": "amount",
          "type": "uint256"
        }
      ],
      "name": "ETHWithdrawn",
      "type": "event"
    },
    {
      "anonymous": false,
      "inputs": [
        {
          "indexed": true,
          "internalType": "address",
          "name": "previousOwner",
          "type": "address"
        },
        {
          "indexed": true,
          "internalType": "address",
          "name": "newOwner",
          "type": "address"
        }
      ],
      "name": "OwnershipTransferred",
      "type": "event"
    },
    {
      "anonymous": false,
      "inputs": [
        {
          "indexed": true,
          "internalType": "address",
          "name": "token",
          "type": "address"
        },
        {
          "indexed": true,
          "internalType": "address",
          "name": "to",
          "type": "address"
        },
        {
          "indexed": false,
          "internalType": "uint256",
          "name": "amount",
          "type": "uint256"
        }
      ],
      "name": "TokenWithdrawn",
      "type": "event"
    },
    {
      "inputs": [],
      "name": "owner",
      "outputs": [
        {
          "internalType": "address",
          "name": "",
          "type": "address"
        }
      ],
      "stateMutability": "view",
      "type": "function"
    },
    {
      "inputs": [],
      "name": "renounceOwnership",
      "outputs": [],
      "stateMutability": "nonpayable",
      "type": "function"
    },
    {
      "inputs": [
        {
          "internalType": "address",
          "name": "newOwner",
          "type": "address"
        }
      ],
      "name": "transferOwnership",
      "outputs": [],
      "stateMutability": "nonpayable",
      "type": "function"
    },
    {
      "inputs": [
        {
          "internalType": "address",
          "name": "token",
          "type": "address"
        },
        {
          "internalType": "address",
          "name": "to",
          "type": "address"
        },
        {
          "internalType": "uint256",
          "name": "amount",
          "type": "uint256"
        }
      ],
      "name": "withdraw",
      "outputs": [],
      "stateMutability": "nonpayable",
      "type": "function"
    },
    {
      "inputs": [
        {
          "internalType": "address",
          "name": "to",
          "type": "address"
        },
        {
          "internalType": "uint256",
          "name": "amount",
          "type": "uint256"
        }
      ],
      "name": "withdrawETH",
      "outputs": [],
      "stateMutability": "nonpayable",
      "type": "function"
    },
    {
      "stateMutability": "payable",
      "type": "receive"
    }
  ],
  "bytecode": "0x6080604052348015600e575f5ffd5b5060405161069a38038061069a833981016040819052602b9160b4565b806001600160a01b038116605857604051631e4fbdf760e01b81525f600482015260240160405180910390fd5b605f816065565b505060df565b5f80546001600160a01b038381166001600160a01b0319831681178455604051919092169283917f8be0079c531659141344cd1fd0a4f28419497f9722a3daafe3b4186f6b6457e09190a35050565b5f6020828403121560c3575f5ffd5b81516001600160a01b038116811460d8575f5ffd5b9392505050565b6105ae806100ec5f395ff3fe60806040526004361061004c575f3560e01c80634782f77914610057578063715018a6146100785780638da5cb5b1461008c578063d9caed12146100b6578063f2fde38b146100d5575f5ffd5b3661005357005b5f5ffd5b348015610062575f5ffd5b506100766100713660046104d7565b6100f4565b005b348015610083575f5ffd5b50610076610264565b348015610097575f5ffd5b505f54604080516001600160a01b039092168252519081900360200190f35b3480156100c1575f5ffd5b506100766100d03660046104ff565b610277565b3480156100e0575f5ffd5b506100766100ef366004610539565b610404565b6100fc610441565b6001600160a01b0382166101445760405162461bcd60e51b815260040161013b906020808252600490820152630746f3d360e41b604082015260600190565b60405180910390fd5b804710156101875760405162461bcd60e51b815260206004820152601060248201526f0d2dce6eaccccd2c6d2cadce8408aa8960831b604482015260640161013b565b5f826001600160a01b0316826040515f6040518083038185875af1925050503d805f81146101d0576040519150601f19603f3d011682016040523d82523d5f602084013e6101d5565b606091505b505090508061021c5760405162461bcd60e51b8152602060048201526013602482015272115512081d1c985b9cd9995c8819985a5b1959606a1b604482015260640161013b565b826001600160a01b03167f94b2de810873337ed265c5f8cf98c9cffefa06b8607f9a2f1fbaebdfbcfbef1c8360405161025791815260200190565b60405180910390a2505050565b61026c610441565b6102755f61046d565b565b61027f610441565b6001600160a01b0382166102be5760405162461bcd60e51b815260040161013b906020808252600490820152630746f3d360e41b604082015260600190565b6001600160a01b0383166102fe5760405162461bcd60e51b81526020600482015260076024820152660746f6b656e3d360cc1b604482015260640161013b565b60405163a9059cbb60e01b81526001600160a01b0383811660048301526024820183905284169063a9059cbb906044016020604051808303815f875af115801561034a573d5f5f3e3d5ffd5b505050506040513d601f19601f8201168201806040525081019061036e9190610559565b6103b25760405162461bcd60e51b8152602060048201526015602482015274115490cc8c081d1c985b9cd9995c8819985a5b1959605a1b604482015260640161013b565b816001600160a01b0316836001600160a01b03167f8210728e7c071f615b840ee026032693858fbcd5e5359e67e438c890f59e5620836040516103f791815260200190565b60405180910390a3505050565b61040c610441565b6001600160a01b03811661043557604051631e4fbdf760e01b81525f600482015260240161013b565b61043e8161046d565b50565b5f546001600160a01b031633146102755760405163118cdaa760e01b815233600482015260240161013b565b5f80546001600160a01b038381166001600160a01b0319831681178455604051919092169283917f8be0079c531659141344cd1fd0a4f28419497f9722a3daafe3b4186f6b6457e09190a35050565b80356001600160a01b03811681146104d2575f5ffd5b919050565b5f5f604083850312156104e8575f5ffd5b6104f1836104bc565b946020939093013593505050565b5f5f5f60608486031215610511575f5ffd5b61051a846104bc565b9250610528602085016104bc565b929592945050506040919091013590565b5f60208284031215610549575f5ffd5b610552826104bc565b9392505050565b5f60208284031215610569575f5ffd5b81518015158114610552575f5ffdfea26469706673582212207985b3264d9a1ae20fc57fddbdc33b445656de3ff67f35309bee51336213476b64736f6c634300081c0033",
  "linkReferences": {},
  "deployedLinkReferences": {},
  "immutableReferences": {},
  "inputSourceName": "project/contracts/Treasury.sol",
  "buildInfoId": "solc-0_8_28-7abca23a5de3c3e8ec3a10b7798d56c51017904a"
}