{
  "_format": "hh3-artifact-1",
  "contractName": "Lock",
  "sourceName": "contracts/lock.sol",
  "abi": [
    {
      "inputs": [
        {
          "internalType": "address",
          "name": "_tpayToken",
          "type": "address"
        },
        {
          "internalType": "address",
          "name": "initialOwner",
          "type": "address"
        }
      ],
      "stateMutability": "nonpayable",
      "type": "constructor"
    },
    {
      "inputs": [
        {
          "internalType": "address",
          "name": "owner",
          "type": "address"
        }
      ],
      "name": "OwnableInvalidOwner",
      "type": "error"
    },
    {
      "inputs": [
        {
          "internalType": "address",
          "name": "account",
          "type": "address"
        }
      ],
      "name": "OwnableUnauthorizedAccount",
      "type": "error"
    },
    {
      "anonymous": false,
      "inputs": [
        {
          "indexed": true,
          "internalType": "address",
          "name": "user",
          "type": "address"
        },
        {
          "indexed": false,
          "internalType": "uint256",
          "name": "amount",
          "type": "uint256"
        }
      ],
      "name": "Deposited",
      "type": "event"
    },
    {
      "anonymous": false,
      "inputs": [
        {
          "indexed": true,
          "internalType": "address",
          "name": "previousOwner",
          "type": "address"
        },
        {
          "indexed": true,
          "internalType": "address",
          "name": "newOwner",
          "type": "address"
        }
      ],
      "name": "OwnershipTransferred",
      "type": "event"
    },
    {
      "anonymous": false,
      "inputs": [
        {
          "indexed": true,
          "internalType": "address",
          "name": "to",
          "type": "address"
        },
        {
          "indexed": false,
          "internalType": "uint256",
          "name": "amount",
          "type": "uint256"
        }
      ],
      "name": "Withdrawn",
      "type": "event"
    },
    {
      "inputs": [
        {
          "internalType": "uint256",
          "name": "amount",
          "type": "uint256"
        }
      ],
      "name": "deposit",
      "outputs": [],
      "stateMutability": "nonpayable",
      "type": "function"
    },
    {
      "inputs": [],
      "name": "getBalance",
      "outputs": [
        {
          "internalType": "uint256",
          "name": "",
          "type": "uint256"
        }
      ],
      "stateMutability": "view",
      "type": "function"
    },
    {
      "inputs": [],
      "name": "owner",
      "outputs": [
        {
          "internalType": "address",
          "name": "",
          "type": "address"
        }
      ],
      "stateMutability": "view",
      "type": "function"
    },
    {
      "inputs": [],
      "name": "renounceOwnership",
      "outputs": [],
      "stateMutability": "nonpayable",
      "type": "function"
    },
    {
      "inputs": [],
      "name": "tpayToken",
      "outputs": [
        {
          "internalType": "contract IERC20",
          "name": "",
          "type": "address"
        }
      ],
      "stateMutability": "view",
      "type": "function"
    },
    {
      "inputs": [
        {
          "internalType": "address",
          "name": "newOwner",
          "type": "address"
        }
      ],
      "name": "transferOwnership",
      "outputs": [],
      "stateMutability": "nonpayable",
      "type": "function"
    },
    {
      "inputs": [
        {
          "internalType": "address",
          "name": "to",
          "type": "address"
        },
        {
          "internalType": "uint256",
          "name": "amount",
          "type": "uint256"
        }
      ],
      "name": "withdraw",
      "outputs": [],
      "stateMutability": "nonpayable",
      "type": "function"
    }
  ],
  "bytecode": "0x608060405234801561000f575f5ffd5b5060405161077738038061077783398101604081905261002e9161014d565b806001600160a01b03811661005d57604051631e4fbdf760e01b81525f60048201526024015b60405180910390fd5b610066816100e3565b506001600160a01b0382166100bd5760405162461bcd60e51b815260206004820152601460248201527f546f6b656e2061646472657373203d207a65726f0000000000000000000000006044820152606401610054565b50600180546001600160a01b0319166001600160a01b039290921691909117905561017e565b5f80546001600160a01b038381166001600160a01b0319831681178455604051919092169283917f8be0079c531659141344cd1fd0a4f28419497f9722a3daafe3b4186f6b6457e09190a35050565b80516001600160a01b0381168114610148575f5ffd5b919050565b5f5f6040838503121561015e575f5ffd5b61016783610132565b915061017560208401610132565b90509250929050565b6105ec8061018b5f395ff3fe608060405234801561000f575f5ffd5b506004361061007a575f3560e01c80638da5cb5b116100585780638da5cb5b146100ce578063b6b55f25146100de578063f2fde38b146100f1578063f3fef3a314610104575f5ffd5b806312065fe01461007e578063715018a61461009957806386a643bf146100a3575b5f5ffd5b610086610117565b6040519081526020015b60405180910390f35b6100a1610186565b005b6001546100b6906001600160a01b031681565b6040516001600160a01b039091168152602001610090565b5f546001600160a01b03166100b6565b6100a16100ec366004610506565b610199565b6100a16100ff366004610538565b6102c6565b6100a1610112366004610558565b610303565b6001546040516370a0823160e01b81523060048201525f916001600160a01b0316906370a0823190602401602060405180830381865afa15801561015d573d5f5f3e3d5ffd5b505050506040513d601f19601f820116820180604052508101906101819190610580565b905090565b61018e61048b565b6101975f6104b7565b565b5f81116101d85760405162461bcd60e51b81526020600482015260086024820152670616d6f756e743d360c41b60448201526064015b60405180910390fd5b6001546040516323b872dd60e01b8152336004820152306024820152604481018390526001600160a01b03909116906323b872dd906064016020604051808303815f875af115801561022c573d5f5f3e3d5ffd5b505050506040513d601f19601f820116820180604052508101906102509190610597565b61028e5760405162461bcd60e51b815260206004820152600f60248201526e151c985b9cd9995c8819985a5b1959608a1b60448201526064016101cf565b60405181815233907f2da466a7b24304f47e87fa2e1e5a81b9831ce54fec19055ce277ca2f39ba42c49060200160405180910390a250565b6102ce61048b565b6001600160a01b0381166102f757604051631e4fbdf760e01b81525f60048201526024016101cf565b610300816104b7565b50565b61030b61048b565b6001600160a01b03821661034a5760405162461bcd60e51b81526004016101cf906020808252600490820152630746f3d360e41b604082015260600190565b5f81116103845760405162461bcd60e51b81526020600482015260086024820152670616d6f756e743d360c41b60448201526064016101cf565b60015460405163a9059cbb60e01b81526001600160a01b038481166004830152602482018490529091169063a9059cbb906044016020604051808303815f875af11580156103d4573d5f5f3e3d5ffd5b505050506040513d601f19601f820116820180604052508101906103f89190610597565b6104445760405162461bcd60e51b815260206004820152601860248201527f5769746864726177207472616e73666572206661696c6564000000000000000060448201526064016101cf565b816001600160a01b03167f7084f5476618d8e60b11ef0d7d3f06914655adb8793e28ff7f018d4c76d505d58260405161047f91815260200190565b60405180910390a25050565b5f546001600160a01b031633146101975760405163118cdaa760e01b81523360048201526024016101cf565b5f80546001600160a01b038381166001600160a01b0319831681178455604051919092169283917f8be0079c531659141344cd1fd0a4f28419497f9722a3daafe3b4186f6b6457e09190a35050565b5f60208284031215610516575f5ffd5b5035919050565b80356001600160a01b0381168114610533575f5ffd5b919050565b5f60208284031215610548575f5ffd5b6105518261051d565b9392505050565b5f5f60408385031215610569575f5ffd5b6105728361051d565b946020939093013593505050565b5f60208284031215610590575f5ffd5b5051919050565b5f602082840312156105a7575f5ffd5b81518015158114610551575f5ffdfea2646970667358221220f682f0175f1b17a5ad05f7e36785acff74f74fa98b05c37ef426186337d646f064736f6c634300081c0033",
  "linkReferences": {},
  "deployedLinkReferences": {},
  "immutableReferences": {},
  "inputSourceName": "project/contracts/lock.sol",
  "buildInfoId": "solc-0_8_28-d8e860bd5a0707a4d6838026cf25eaf3ae25da6d"
}